:020000040800F2
:10000000B00900209D0100080B0E0008690D0008D2
:10001000090E00083F0300086F10000800000000F0
:100020000000000000000000000000000F0E0008AB
:1000300041030008000000000D0E0008110E00082A
:10004000B7010008B7010008B7010008B7010008B0
:10005000B7010008B7010008B7010008B7010008A0
:10006000B7010008B7010008B7010008B701000890
:10007000B7010008B7010008B7010008B701000880
:10008000B7010008B7010008B7010008B701000870
:10009000B7010008B7010008B7010008B701000860
:1000A000B7010008B7010008B7010008B701000850
:1000B000B7010008B7010008B7010008B701000840
:1000C000B7010008B7010008B7010008B701000830
:1000D000B7010008B7010008B7010008B701000820
:1000E000B7010008B7010008B7010008B701000810
:1000F000B7010008B7010008B7010008B701000800
:10010000B7010008B7010008B7010008B7010008EF
:10011000B7010008B7010008B7010008B7010008DF
:10012000B7010008B7010008B7010008B7010008CF
:10013000B7010008B7010008B7010008B7010008BF
:10014000B7010008B7010008B7010008B7010008AF
:10015000B7010008B7010008B7010008B70100089F
:10016000B7010008B7010008B7010008B70100088F
:10017000B7010008B7010008B7010008000000003F
:10018000B7010008B7010008DFF80CD000F096F8BE
:10019000004800473D420008B0090020064880475B
:1001A00006480047FEE7FEE7FEE7FEE7FEE7FEE75C
:1001B000FEE7FEE7FEE7FEE7910E00088901000872
:1001C0002DE9F05F0546002092469B46884606468C
:1001D000814640241BE0284641464746224600F01F
:1001E0005CF853465A46C01A914110D3114618463E
:1001F000224600F043F82D1A67EB01084F462246CD
:100200000120002100F03AF817EB00094E41201EB2
:10021000A4F10104DFDC484631462A464346BDE8E6
:10022000F09F40EA01039B0703D009E008C9121FB1
:1002300008C0042AFAD203E011F8013B00F8013BA0
:10024000521EF9D27047D2B201E000F8012B491ECC
:10025000FBD270470022F6E710B513460A46044663
:100260001946FFF7F0FF204610BD034611F8012B99
:1002700000F8012B002AF9D118467047202A04DB28
:10028000203A00FA02F1002070479140C2F12003A9
:1002900020FA03F3194390407047202A04DB203AE8
:1002A00021FA02F00021704721FA02F3D040C2F196
:1002B000200291400843194670470000064C074D44
:1002C00006E0E06840F0010394E807009847103426
:1002D000AC42F6D3FFF75CFF3C4800085C480008DE
:1002E00070B58D1810F8014B14F0030201D110F80D
:1002F000012B231106D110F8013B03E010F8016B2C
:1003000001F8016B521EF9D1ABB110F8012B04F0CA
:100310000C048A1A0C2C03D0A2EB84129B1C08E05C
:1003200010F8014BA2EB0422F8E712F8014B01F898
:10033000014B5B1EF9D5A942D4D3002070BDFEE766
:10034000704772B6FEE70000074A00211084084695
:1003500002EB40035B8822F810301944401C89B23C
:100360001028F5DB08097047100300202DE9F84F2D
:10037000DFF8BCA10022012503264FF00F090AF186
:10038000040BAAF1040E00BF0B6805FA02F4234027
:10039000A34270D10F7907F00307012F01D0022F7C
:1003A00016D187684FEA420806FA08FC27EA0C07CC
:1003B000D1F80CC00CFA08FC4CEA070CC0F808C0D5
:1003C0004768A7430C79C4F3001494403C4344604D
:1003D0000C79E443A4070AD0C4684FEA420C06FA39
:1003E0000CF7BC438F6807FA0CF72743C7600C79FA
:1003F00004F00304022C12D1D40800EB840CDCF8C6
:1004000020405707FF0E09FA07F824EA0804D1F83C
:10041000108008FA07F848EA0408CCF8208004683D
:100420004FEA420C06FA0CF7BC430F7907F00307BA
:1004300007FA0CF7274307604C6814F4403F70D06C
:100440003C4C276847F480472760246822F0030764
:1004500004F480440094384C07EB040CDCF80848A2
:1004600097074FEA177809FA08F7BC43334FB842A9
:1004700002D1002724E054E0314FB84201D10127D6
:100480001EE0304FB84201D1022719E02E4FB8428A
:1004900001D1032714E02D4FB84201D104270FE00A
:1004A0002B4FB84201D105270AE02A4FB84201D1AB
:1004B000062705E0284FB84201D1072700E00827AA
:1004C00007FA08F72743CCF80878DAF800405746CF
:1004D000D1F804C09C435FEACC2C00D51C433C609F
:1004E000DBF800405F46D1F804C09C435FEA8C2CE7
:1004F00000D51C433C60DEF800407746D1F804C0CC
:100500009C435FEA8C3C00D51C433C60084F083F8D
:100510003C68D1F804C09C435FEACC3C00D51C4346
:100520003C60521C102AFFF42FAFBDE8F88F00008A
:10053000083C0140443802400030014000000240C5
:100540000004024000080240000C0240001002407B
:100550000014024000180240001C02400AB18161F0
:1005600070470904FBE700000148806870470000FD
:1005700000000020024881680278114481607047C1
:10058000000000200B4810B5016841F400710160C3
:10059000016841F480610160016841F4807101608B
:1005A000032000F061F80F2000F006F800F024F8B6
:1005B000002010BD003C024070B50D4D04464FF4C4
:1005C0007A712878B1FBF0F00A490968B1FBF0F0C4
:1005D00000F0FEFA48B9102C07D200222146501E26
:1005E00000F022F800206C6070BD012070BD00009A
:1005F000000000200C0000200A4808B5016841F402
:1006000080410160006800F4804000900548001FB0
:10061000016841F080510160006800F08050009056
:1006200008BD000044380240F0B40E4B1B680C4675
:10063000C3F30223C3F10705042D00D90425191DB6
:10064000072901D2002300E0DB1E012606FA05F18E
:10065000491E214099409E40761E16403143F0BC11
:1006600003F04EBA0CED00E0064900F007020868FE
:100670004FF6FF03184040EA0220034A1043086087
:10068000704700000CED00E00000FA052DE9F0478E
:100690000E46050065D0DFF81481D8F80000F7B2E7
:1006A00000F00700B04207D288F80070D8F80000C8
:1006B00000F00700B04254D128683D4C810712D5A4
:1006C000400703D5206840F4E050206028780007F8
:1006D00003D5206840F4604020602068A96820F0BD
:1006E000F000084320602878C0072DD030496868A2
:1006F0000839012812D0022813D0032811D0096824
:10070000890700292DDA216821F0030101432160C6
:10071000FFF72AFF814641F2883A0EE00968890313
:10072000EFE709688901ECE7FFF71EFFA0EB09017D
:10073000514502D90320BDE8F0872068696800F0C0
:100740000C00B0EB810FEFD1D8F80010404601F05B
:100750000701B14207D90770006800F00700B042F6
:1007600001D00120E7E72878400705D52068E9682F
:1007700020F4E050084320602878000706D5206860
:10078000296920F4604040EAC100206000F038F898
:100790002168084AC1F30311515CC840064908604A
:1007A00006480068FFF708FF0020C4E7003C02404D
:1007B00008380240244800080C00002004000020F3
:1007C0000448054900680968044AC1F38221515C64
:1007D000C84070470C000020083802403448000828
:1007E0000448054900680968044AC1F34231515C74
:1007F000C84070470C000020083802403448000808
:10080000154810B5006810F00C02144813D01449B4
:10081000042A0FD0082A0ED10F4C241F2268236807
:1008200002F03F025B0207D52068C0F38810A0FBEE
:10083000010106E0084610BD2168C1F38811A1FB43
:1008400000010023FFF7BCFC2168C1F30141491CF2
:100850004900B0FBF1F010BD083802400024F4005C
:1008600040787D012DE9F84F04006ED02078DFF844
:100870004C93C007A9F104054AD009F104000168AE
:10088000C1F38101012908D00068C0F3810002286A
:100890000AD1D9F80000400206D52868800337D570
:1008A00060680028E1D033E06068B0F5803F10D088
:1008B000B0F5A02F286810D020F480302860286878
:1008C00020F4802028606068A8B1FFF74DFE06463E
:1008D0000DE0286840F48030F4E740F48020286080
:1008E000F7E700BFFFF740FE801B642873D8286835
:1008F0008003F7D50CE0FFF737FE064605E000BFA2
:10090000FFF732FE801B6428F0D828688003F7D4F4
:100910002078DFF8AC8280074FF0000A3ED5A74868
:10092000001D016811F00C0F08D00068C0F38100B1
:1009300002280BD1D9F80000400207D428688007AC
:1009400016D5E068012800D112E033E1E068B8B1C3
:100950000120C8F80000FFF707FE064605E000BFCB
:10096000FFF702FE801B0228C0D828688007F7D551
:100970002868216920F0F80040EAC10028600DE0F5
:10098000C8F800A0FFF7F0FD064604E0FFF7ECFD15
:10099000801B02281FD828688007F7D4207800071A
:1009A00022D5864F87486169703771B10121016096
:1009B000FFF7DAFD064604E0FFF7D6FD801B0228AC
:1009C00009D838688007F7D50EE0C0F800A0FFF717
:1009D000CBFD064605E082E0FFF7C6FD801B02283E
:1009E0007DD838688007F7D42078400768D5DFF8CD
:1009F000CCB100270BF13C0BDBF80000C0000BD49E
:100A0000DBF8001041F08051CBF80010DBF800005B
:100A1000012700F0805000906B4E3068C00510D464
:100A2000306840F480703060FFF79EFD009005E074
:100A3000FFF79AFD0099401A022850D83068C00587
:100A4000F6D55E4EA0686C3601280FD005283068B8
:100A500010D020F001003060306820F004003060D9
:100A6000A068B8B1FFF780FD00900FE0306840F05B
:100A70000100F4E740F004003060F7E7FFF774FD91
:100A80000099411A41F28830814266D83068800767
:100A9000F4D50EE0FFF768FD009007E0FFF764FD76
:100AA0000099411A41F28830814256D83068800757
:100AB000F4D42FB1DBF8001021F08051CBF80010F6
:100AC000A069C8B33D49091D0968C1F38101022924
:100AD0004AD00228504607D0C8F8600000E03CE049
:100AE000FFF742FD04463BE04746C8F86000FFF7C9
:100AF0003BFD064605E000BFFFF736FD801B0228E0
:100B00002BD828688001F7D4D4E907010843A16AEB
:100B10002E4A490802EB0141626A41EA8211084308
:100B200094F82C1040EA0161C9F8001001203866E1
:100B3000FFF71AFD044606E03EE000BFFFF714FD94
:100B4000001B022809D828688001F7D534E000BFCF
:100B5000FFF70AFD001B022802D90320BDE8F88F29
:100B600028688001F4D427E00128F7D0D9F80000E4
:100B7000E26900F4800191421CD1226A00F03F0139
:100B8000914217D147F6C071626A0140B1EB821FF2
:100B900010D1A26A4FF0FF3300F4403103EB520250
:100BA000B1EB024F06D194F82C1000F07060B0EB5E
:100BB000016F01D00120D1E70020CFE704380240C7
:100BC00000004742800E4742007000400000FFFFD7
:100BD00010B5401EB0F1807F01D3012010BD4FF051
:100BE000E02460610F21601702F08AFF0020A061FD
:100BF00007202061002010BD70B5040004D094F8D7
:100C00004100002510B106E0012070BD84F840507D
:100C1000204600F023F8242084F841002068C168B1
:100C200021F40051C160204600F062F9206801699A
:100C300021F4904101612068416921F02A0141615C
:100C40002068C16841F40051C1606564202084F8C7
:100C5000410084F842006563002070BD10B586B085
:100C6000044614216846FFF7F5FA144920688842C3
:100C700021D113480021026842F01002026000688E
:100C800000F0100005900E481438026842F001028E
:100C90000260006800F0010005904FF4C060009011
:100CA0000220CDE90101032003900720049069464A
:100CB0000448FFF75BFB06B010BD000000100140C8
:100CC00044380240000002402DE9F843044690F801
:100CD0004100984616460D46202802D00220BDE865
:100CE000F88385B17EB100206064212084F8410042
:100CF000FFF73AFCA6848146E684A0682027B0F579
:100D0000805F02D003E00120E9E7206910B12E46A0
:100D100000250EE000260CE08021204600F06EF950
:100D2000A8B9C6B116F8010B21684860E08C401ED6
:100D3000E084E08C4B464FF00002CDF800800028A4
:100D4000EAD14FF04001204600F058F940B184F854
:100D500041700320C3E735F8020BC0F30800E3E756
:100D600084F841700020BAE7FEE7000010B586B0B5
:100D7000C02000900120019002900320084C0390B5
:100D800069462046FFF7F2FA012240212046FFF78C
:100D9000E5FB012280212046FFF7E0FB06B010BDF5
:100DA00000000240094808B5016841F001010160F6
:100DB000016801F001010091016841F00201016048
:100DC000006800F00200009008BD000030380240CA
:100DD0000C4810B50A4901604FF4E131416000212F
:100DE00081600C22C160C0E904128161C161FFF71A
:100DF00003FF002803D0BDE81040FFF7A2BA10BDE2
:100E00000010014054030020FEE7FEE770477047E2
:100E1000FFF7B0BB10B592B030216846FFF71AFA61
:100E200014210CA8FFF716FA17480024016841F0B6
:100E300080510160006800F08050119013480168F3
:100E400041F4804101600068069400F480401190F4
:100E50000220009001200390102004906846FFF7C4
:100E600001FD08B172B6FEE70F20CDE90C040E9427
:100E70000F9400210CA81094FFF708FC002801D063
:100E800072B6FEE712B010BD40380240007000405C
:100E90000248016841F470010160704788ED00E08C
:100EA00001680C3151E8002F22F4907241E80023D0
:100EB000002BF5D10168143151E8002F22F0010216
:100EC00041E80023002BF5D1016B012909D101680C
:100ED0000C3151E8002F22F0100241E80023002BD2
:100EE000F5D1202180F842100021016370470000F5
:100EF00070B5044600680169E26821F4405111436D
:100F000001612169A068E2690843616911430843EE
:100F10002168CA6849F20C639A430243CA60206898
:100F20004169A26921F4407111434161314920684E
:100F3000884202D03049884202D1FFF751FC01E0DB
:100F4000FFF73EFCE2690023192164253226B2F541
:100F5000004F626828D0A0FB0101930F9200FFF7B9
:100F60002FF90146B0FBF5F06FF01802504301EB8A
:100F7000800006EB0010B0FBF5F000F0F002B1FBD2
:100F8000F5F002EB0012B1FBF5F06FF018035843D7
:100F900001EB800006EB0010B0FBF5F000F00F0055
:100FA00021681044886070BDA0FB010192185B416C
:100FB000FFF706F90146B0FBF5F00201B1FBF5F0D1
:100FC0006FF01803584301EB800006EBC000B0FB44
:100FD000F5F000F0F80002EB4002B1FBF5F05843E9
:100FE00001EB800006EBC000B0FBF5F000F007005D
:100FF000D6E7000000100140001401402DE9F8433D
:10100000984617460D460446089E24E0701C22D0E0
:10101000FFF7AAFAA0EB0800B0421AD8CEB12068B8
:10102000C168490717D5802D15D0402D13D0016810
:10103000C94309070FD40168002540680090204685
:10104000FFF72EFF0820606484F840500120BDE8BF
:10105000F8830320FBE72068006835EA000004D02D
:101060000020B842D2D00020F1E70120F9E7FEE7E6
:101070007CB50446002094F8DA200D46012A03D0FE
:10108000022A01D0032A14D101AB6A46012120466D
:1010900000F099F9009A4FF47F018A4202D8019A30
:1010A0008A4206D9002804D125B10F49204601F013
:1010B000D9FE7CBD0422FF21204600F052FE0546E9
:1010C00000227021204600F04CFE05430022FF2143
:1010D000204600F046FE054300228021204600F015
:1010E00040FE28437CBD000003010020F8B5064601
:1010F000002401220B21304600F033FE0746002277
:101100000B21304600F02DFE40EA07056A46132108
:10111000304600F01CFB641C9DF800102843E4B22C
:10112000490704D0032C04D20028E2D0F8BD032CD8
:10113000FCD36FF00B00F8BDF0B591B0044601236D
:10114000FE22892100F0ECFD20B9002288212046F2
:1011500000F007FE002584F8F0504FF47A70A4F8F0
:1011600052014FF4C870A4F854015748C4F858010C
:1011700056482562C4F8D4006946204600F0AAF813
:10118000060009D18DF800508DF8015040226946C3
:1011900004F11000FFF745F86420A4F834014FF47F
:1011A0006170A4F836014FF4FA70A4F838014FF4D6
:1011B0002060A4F83C01012784F850713A46802150
:1011C000204600F0CEFD06430122FF21204600F01C
:1011D000C8FD064300221146204600F0C2FD06432A
:1011E00010AA9121204600F0B2FA06439DF8400073
:1011F00084F83A0101220021204600F0B2FD0643A6
:101200000022FF21204600F0ACFD06430022802191
:10121000204600F0A6FD30430026002852D1B1B28E
:101220000122204600F076FB761C062EF5DB002816
:1012300048D100220221204600F06CFB002841D159
:1012400000220321204600F065FB00283AD100224D
:101250000421204600F05EFB002833D10022052146
:10126000204600F057FB00282CD14FF490120021AB
:10127000204600F090FB002824D14FF48042012149
:10128000204600F088FB00281CD14FF40C120221EC
:10129000204600F080FB002814D1002203212046C4
:1012A00000F079FB00280DD1FF2084F830010246C0
:1012B0000121204600F055FD84F83271002801D14B
:1012C00084F8155111B0F0BD856B0100A4700900C0
:1012D00000F078BF70B506460C46007C01F8080B9C
:1012E000304600F044F8002833D1207304F1100197
:1012F000304600F0DDF900282BD104F1140130460E
:1013000000F0E4F8002824D1002501E0002820D1D5
:1013100004EB8502A9B23046243200F07BF80028A5
:1013200017D16219A9B23046183200F066F86D1C68
:10133000062DEBDB00280CD104F13C01304600F017
:101340009CF9002805D1211D3046BDE8704000F011
:10135000BBB870BD10B50C460A46092100F0F7F97C
:10136000002803D1217801F00101217010BD3EB5A4
:101370000C46054602AAF82100F0FFF900280ED11C
:101380006A460421284600F0EDF9002807D1BDF88F
:10139000081029B1009AB2FBF1F12160A9613EBDAC
:1013A0002168FBE738B50C466A46132100F0CFF9F7
:1013B0009DF8001001F0070211F0180F226001D013
:1013C0006FF0050038BDF8B515461C4606466A465E
:1013D0000E2100F0D2F9BDF800100905C9082960F6
:1013E000002809D16A460C21304600F0C6F9BDF844
:1013F00000100905C9082160F8BD03460020062930
:1014000002D3001F002102E0194491F82810117046
:1014100070470000F8B504460020154606292ED274
:10142000DFE801F00305191B1D1D646B25E06A460A
:101430004421204600F0A1F9002803D1BDF8001096
:101440004FEA412606D1EEB12E604FF00101A663AE
:1014500084F82910F8BDE46B0FE0246C0DE06A46B7
:101460004FF06401204600F088F9002804D100BF45
:10147000BDF800104FEA4124ECD12C60F8BD6FF0AC
:101480000300F8BDA16B29604FF00001E0E77CB5D7
:101490000C4690F8DA100025012604290AD06A4685
:1014A000142100F054F900280BD19DF80010C90751
:1014B00006D007E001A9FFF775FF0199042901D0C3
:1014C00025707CBD26707CBD01F068B901F0C8B9FB
:1014D00001F0E0B901F0FABBF0B58DB00C4605465D
:1014E0000C2302AA142100F053F906007ED100213A
:1014F000A17521609DF813009DF81220616000EB3A
:1015000002209DF80F209DF80E304FF47A7E02EBFA
:1015100003221204D209E2609DF811309DF8106098
:1015200080B203EB06231B04DB0923619DF80B301B
:101530009DF80A6003EB06239BB2A382B5F85261C3
:101540009DF8087095F831C176451FD0464306F5E1
:10155000FA7696FBFEF02E8C95F81CE080B2B6B2BF
:10156000BEF1000F12D05E43B2EB262F08D1BCF1C2
:10157000000F02D042F2B82008E048F6E0200DE06B
:101580005043A2EB2626B0FBF6F080B2BCF1000F70
:1015900004D0810821818001E07501E02081E1759E
:1015A0000CA8CDE900403946284601F09BFA060018
:1015B00025D19DF83000207605F150011C220D4602
:1015C00005A8FEF72EFE2089ADF81C00E07D8DF801
:1015D0002B006089ADF81E0060680690E0680890F6
:1015E00020690990A08AADF8280000E007E0207E7D
:1015F0008DF82C001C2205A92846FEF712FE0DB01E
:101600003046F0BD38B5054600200C468DF8000088
:101610006A460121284600F09AF800282AD123467C
:101620009DF800200021284602F0B0FE002821D1BC
:10163000A31C9DF800200121284602F0A7FE0028E7
:1016400018D1631C9DF800200221284602F09EFE5E
:1016500000280FD1E31C9DF800200321284602F04A
:1016600095FE002806D1231D9DF800200421284660
:1016700002F08CFE38BD01F0A2BB38B50C46054621
:101680006A46012100F063F800280BD19DF8001094
:1016900085F83011090601D5012100E000212170F3
:1016A00085F84C1038BD02460020127F0A70704742
:1016B00038B50D4604466A46202100F05EF8002841
:1016C00007D1BDF8001029B1C900296021620121AC
:1016D000217738BD216A29600021F9E7012301F053
:1016E00068BC01F086BC70B5047C054614B900F0F6
:1016F000F3F910B9284601F007FC50EA040102D1C1
:10170000032185F8321170BD70B50C4605460021E5
:1017100000F051F8002810D12846FFF7E4FF002818
:101720000BD121462846FFF7D7FE002805D12846D1
:10173000BDE870400021FFF7D9BC70BD08B500209E
:1017400001460090491C0091FA29FBD308BD10B551
:10175000002490F85C0101F0B1FD08B16FF01304B2
:10176000204610BD10B5002490F85C0101F0A9FDE1
:1017700008B16FF01304204610BD10B5002490F896
:101780005C0101F0BFFD08B16FF01304204610BDED
:1017900010B50024402B00D3241F90F85C019BB2AD
:1017A00001F0A5FD08B16FF01304204610BD4A08F2
:1017B0008A2100F0D6BA0246002003290BD003DCB0
:1017C00049B1012904D106E0142904D0152902D019
:1017D0006FF0070070471174704770B51C46049E87
:1017E000054611B16FF0090070BD142A08D0152A02
:1017F0000FD0052C6FD2DFE804F066686A6C6F00CA
:101800002EB10122BDE87040842100F0AABA102256
:10181000F8E70122FF2100F0A4FA04460022114655
:10182000284600F09EFA04430022FF21284600F0DB
:1018300098FA044301228021284600F092FA0443DA
:1018400002228521284600F08CFA04430422FF215D
:10185000284600F086FA04430022CD21284600F0F5
:1018600080FA04431122CC21284600F07AFA04437E
:101870000722FF21284600F074FA04430022BE210B
:10188000284600F06EFA04430622FF21284600F0A5
:1018900068FA04430922CC21284600F062FA044386
:1018A0000022FF21284600F05CFA04430122FF21B8
:1018B000284600F056FA044300221146284600F05C
:1018C00050FA204370BD002207E0012205E0022209
:1018D00003E0032201E017E004220A21284600F079
:1018E00040FA0028EED196B11023EF228421284639
:1018F00000F016FA0028E5D185F8DA402846BDE860
:1019000070400021FFF7F2BB6FF00A0070BD0023AA
:10191000EBE700002DE9F041044600200D46164695
:10192000071F034601460246062D02D33846BDE88E
:10193000F08156B104EB85014B6B0121062DF5D2E8
:10194000DFE805F005080F1215180122F6E784F804
:10195000281017E0C3F34F224421204600F00CFA70
:101960000EE084F82A100DE084F82B100AE05300F2
:10197000FE2201E01301EF226021204600F0D0F9A1
:101980000028D4D1611926B15FF0010281F8282026
:10199000CDE70022FAE770B514460022431800EBA9
:1019A000810593F82830DBB1C4F34F23062914D204
:1019B000DFE801F00305080A0C0C446310E01A4646
:1019C000442105E0C4630BE0046409E01A46642185
:1019D00000F0D2F9020003D003E06FF0030200E050
:1019E0006C63104670BD01F0F4BC01F053BD01F012
:1019F0006FBD01F07DBD2DE9F843074600209046FC
:101A00000E468DF800006A4601213846FFF79FFE1A
:101A100005009DF8000004462ED1291FB8F1010FE2
:101A200006D0052E2CD2DFE806F0191C1F22250057
:101A3000052E25D2DFE806F00306090C0F0044F05E
:101A4000100419E044F0280416E044F0040413E004
:101A500044F0400410E044F080040DE004F0EF0492
:101A60000AE004F0D70407E004F0FB0404E004F00B
:101A7000BF0401E004F07F04844210D015B10EE0F1
:101A80000D460CE022460121384600F06AF90500B7
:101A900005D187F8304138467969FFF7A4FF284619
:101AA000BDE8F88301F077BD70B504460D46217F8F
:101AB000B4F85221002049B1B2F57A7F08D0002253
:101AC0002021204600F058F9002800D1256270BD81
:101AD000C5F3CF02F4E70000F8B501250646047C03
:101AE0002A46802100F03DF90122FF21304600F016
:101AF00038F900221146304600F033F996F83A21C1
:101B00009121304600F02DF901220021304600F0ED
:101B100028F90022FF21304600F023F9002280211D
:101B2000304600F01EF93CB10425012C26D0032CD0
:101B30002FD06FF00700F8BD01220021304600F0E1
:101B400010F98DF800500028F5D100244FF4FA6701
:101B500005E024B16A4600213046FFF7F8FD9DF804
:101B60000020641C25EA0201014304D0BC42E2D3F8
:101B70006FF00600F8BDBC42EBD3F9E718B90121BC
:101B80003046FFF775FA022209E000BF86F83251AD
:101B9000F8BD18B901213046FFF76AFA0422002186
:101BA000304600F0DEF80028F0D0F8BD30B597B030
:101BB0000446402101A8FEF74DFB00258DF8445056
:101BC000ADF850508DF8545001212046169500F084
:101BD00051FB94F8142194F81311012A06D802D16C
:101BE000202903D808E03AB90C2905D915AA16A965
:101BF000204601F0FEF902E0204601F079FC474959
:101C000000287DD194F8500108B9D4F84C11204631
:101C100001F028F900287ED1002204231146204635
:101C20000095FFF7DAFD002875D10122FF2120463B
:101C300000F097F8054614AA84212046FFF79DFD81
:101C400005430022FF21204600F08BF8284362D193
:101C5000BDF8500001A90001C4F8D4002046FFF7E8
:101C600039FB002857D111A92046FFF773FB002844
:101C700051D19DF8440084F83101402201A904F1BA
:101C80001000FEF7CEFA11AA01212046FFF75FFDF2
:101C9000002840D19DF8440084F83001002211460C
:101CA0002046FFF7A8FE002835D100220221204659
:101CB000FFF7A1FE00282ED1032084F8320112AADA
:101CC00000212046FFF7D7FC002824D19DF84800CA
:101CD00084F8E80012AA01212046FFF7CCFC002876
:101CE00019D19DF8480084F8E00013AA032120468A
:101CF00002F01FFA00280ED1139813AA042100E065
:101D000009E0C4F8E400204602F013FA002802D1EA
:101D10001399C4F8DC1017B030BD0000100000208B
:101D20002DE9F84390F85C6190461F4689460024EF
:101D30006A46304601F0C2FA6FF0130508B12C462E
:101D40000CE09DF80020494602EA08023A438DF86B
:101D50000020304601F02FFD0028F0D12046BDE8DC
:101D6000F88310B5002490F85C0101F024FD08B15F
:101D70006FF01304204610BD10B5002490F85C01EC
:101D800001F02AFD08B16FF01304204610BD10B514
:101D90000024402B00D3241F90F85C019BB201F07B
:101DA00010FD08B16FF01304204610BD2DE9F04777
:101DB000B0F854C1D0F85801DDE90A860CFB00F5F3
:101DC0008035DDE908972C0A4FF0000A04FB0CF47B
:101DD000554652B1880200EB5200B0FBF2F000EB26
:101DE0004000404300F50040050C07F50040000CA2
:101DF0000622C01CB0FBF2F003FB09F303F500431D
:101E0000190C4943C0EBC000B0F5803F01D31C481A
:101E100008E0FF1CB7FBF2F0C0EBC00000F500408B
:101E2000000C4043084400EB5800B0FBF8F080037E
:101E3000FE227F30B0FBF2F068434FF47A7100F578
:101E4000FA70B0FBF1F0000100F5FA70B0FBF1F7A9
:101E5000402004F12001B1FBF0F000F0EDFF054659
:101E600027B104EB5700B0FBF7F000E0002000F0D2
:101E7000E3FF3560854200D930605046BDE8F08709
:101E80000000F0FF01EBC10140F277600902A1FB05
:101E9000000170472DE9FF4F87B00446006A0690A5
:101EA000884608694FF47A714843000C0390D8F8CB
:101EB0000C000590DFF8F8B14FF4481604AA41462B
:101EC000204600F057FF06AA4146204600F060FF7A
:101ED00081464FF47A710498069D484300F500400E
:101EE000070C4D43B54200D93546B9F1000074D115
:101EF000D4F8DC00019094F8E060014632462046B8
:101F000000F0DCF88246D4F8E4000090014694F832
:101F1000E820204600F0D2F801460320082E00D128
:101F2000022051444143C9024FF47A7001F5FA711D
:101F3000B1FBF0F140F27762514301F5FA71B1FB68
:101F4000F0FA04988030010A01FB0AF08030060A9A
:101F5000080204900FB14EB109E00999C1F800B030
:101F6000C4F840B10A98002101609DE001264FF4B9
:101F70004870029003984F490004B0FBF7F0884284
:101F800000D908464FF4167100FB01F906EB460034
:101F9000800000F051FF40000390B8F80810464858
:101FA0006A424143380400EB42024FF47A7002F572
:101FB000FA72B2FBF0F2431003EB0743B3FBF0F00D
:101FC0001202B2FBF0F0002800DA404298F8182024
:101FD00000021AB14FF480350FE066E041F25C2256
:101FE000B1FBF2F1C0F58030484300F50040000C31
:101FF00000F5803040084043850B4FF4487105FBE5
:1020000001F000F50040000C10FB00F109F5004064
:10201000000C4043084400F00FFF000464213230FC
:10202000B0FBF1F10398B1FBF0F040F6B531484355
:1020300041F2883108444900B0FBF1F74FF4704099
:10204000874200D90746DDE9001008444FF47A784A
:1020500000F5FA70B0FBF8F04FF4C81101EB500135
:10206000B1FBF0F000F0E8FE000200F5FA70B0FB02
:10207000F8F07F434043384400F0DEFE41464843D9
:102080000EB1584500D9584609990860C4F8400176
:102090000A98029B03908DE80806DDE904122B469E
:1020A0002046FFF783FE814648460BB0BDE8F08F1F
:1020B000AE878F02666666009A99060000B50B46E9
:1020C0001146FFF7DFFE4FF47A7100F5FA70B0FBAE
:1020D000F1F04B4303EB5001B1FBF0F000BD00B554
:1020E0000B461146FFF7CEFE4FF47A7100F5FA70F9
:1020F000B0FBF1F0434303F5FA73B3FBF1F000BD1D
:102100002DE9F0410F4615460446022100F0B2F8D1
:1021100006000BD194F8F10058B194F8F200387031
:1021200004F1F30105F14000FEF79FF83046BDE8E9
:10213000F0810020387085F84000F7E70146C0B212
:10214000090A8840401C70474000801CC0B270479C
:10215000F8B5064600228321FFF703FE040011D1E3
:1021600000254FF4FA676A4683213046FFF7EFFAFD
:1021700004469DF8000020430BD0BD4202D300BFAF
:102180006FF00604012283213046FFF7EAFD204369
:10219000F8BD6D1CBD42E6D3F2E70022114648B1FE
:1021A000401E02E04008491C89B2020AFAD161F3DC
:1021B0001F2082B210467047FF2101EB5000C0B2D1
:1021C000704700007CB50C460A46054601A9FFF79A
:1021D00097FF00282BD19DF8040028B1222805D8AC
:1021E000202805D012A106E014A104E0272801D27E
:1021F00015A100E017A12046FEF737F81BA104F156
:102200002000FEF732F804F16002C0212846FFF7F3
:102210009EFA00280BD16A46C2212846FFF797FA9A
:10222000012104F8611F9DF80010090961707CBD4F
:10223000564C35334C30582054533100564C3533BE
:102240004C30582054533000564C35334C305820C5
:1022500054533200564C35334C30582045533120BE
:102260006F72206C6174657200000000564C35334B
:102270004C3058002DE9F04F95B0002504460E95DE
:102280004FF4C8500F95CDE90450129594F8F060C2
:102290000F46AB46AA46072E7ED00122802120465B
:1022A000FFF75FFD80460122FF212046FFF759FD21
:1022B00040EA0805002211462046FFF752FD40EA99
:1022C00005080622FF212046FFF74BFD40EA0805DE
:1022D00002AA83212046FFF73AFA40EA05089DF852
:1022E0000800832140F004022046FFF73AFD40EA4F
:1022F00008050722FF212046FFF733FD40EA0508C5
:10230000012281212046FFF72CFD40EA08052046E6
:10231000FFF714FA40EA0508012280212046FFF762
:1023200020FD40EA0805F80755D0F00753D16B228D
:1023300094212046FFF715FD40EA05082046FFF7E7
:1023400007FF40EA080501AA90212046FFF70AFA94
:1023500040EA050801982422C0F30621C0F3C03BDF
:10236000129194212046FFF7FCFC40EA0805204624
:10237000FFF7EEFE40EA050801AA90212046FFF78C
:10238000F1F940EA08050198010E8DF82C10010CB6
:102390008DF82D10010A00E0FCE18DF82E108DF86B
:1023A0002F00252294212046FFF7DBFC40EA050898
:1023B0002046FFF7CDFE40EA080901AA90212046F9
:1023C000FFF7D0F940EA09050198010E8DF83010A9
:1023D000000C8DF83100B8077ED5B0077CD40222FE
:1023E00094212046FFF7BDFC40EA05082046FFF790
:1023F000AFFE40EA080513AA90212046FFF7A7F98F
:1024000040EA05087B2294212046FFF7AAFC40EA17
:1024100008052046FFF79CFE40EA050810AA902117
:102420002046FFF794F940EA0805772294212046D8
:10243000FFF797FC40EA05082046FFF789FE40EACF
:10244000080501AA90212046FFF78CF940EA05080B
:1024500001987822410E8DF81810C0F386418DF84E
:102460001910C0F3C6218DF81A10C0F30611000729
:10247000400E8DF81B108DF8080094212046FFF7C0
:1024800070FC40EA08052046FFF762FE40EA0508B6
:1024900001AA90212046FFF765F940EA08059DF85A
:1024A0000810019801EB50718DF81C10C0F3865193
:1024B0008DF81D10C0F3C6318DF81E10C0F3062133
:1024C0008DF81F10C0F34601C007400E8DF8201094
:1024D0008DF80800792200E055E094212046FFF7AE
:1024E00040FC40EA05082046FFF732FE40EA0805B6
:1024F00001AA90212046FFF735F940EA05089DF82A
:10250000081001987A2201EB90618DF82110C0F338
:10251000C6418DF82210C0F306318DF82310C0F3A8
:102520004611C006400E8DF824108DF80800942145
:102530002046FFF716FC40EA08052046FFF708FE94
:1025400040EA050801AA90212046FFF70BF940EA6E
:1025500008059DF80810019801EB90718DF8251081
:10256000C0F3C6518DF82610C0F306418DF8271030
:10257000C0F346218DF82810C0F386008DF829009D
:1025800000208DF82A0078077ED570077CD47B2246
:1025900094212046FFF7E5FB40EA05082046FFF7B7
:1025A000D7FD40EA08050EAA90212046FFF7DAF889
:1025B00040EA05087C2294212046FFF7D2FB40EA3E
:1025C00008092046FFF7C4FD40EA09050FAA90213B
:1025D0002046FFF7C7F840EA0508732294212046F9
:1025E000FFF7BFFB40EA08052046FFF7B1FD40EAD0
:1025F000050801AA90212046FFF7B4F840EA080533
:102600000198742200064FEA104994212046FFF7F2
:10261000A8FB40EA05082046FFF79AFD40EA0805B6
:1026200001AA90212046FFF79DF8019940EA05088C
:1026300049EA11600490752294212046FFF791FB2E
:1026400040EA08052046FFF783FD40EA050901AA94
:1026500090212046FFF786F840EA09080198762283
:1026600000064FEA104994212046FFF77AFB40EA22
:1026700008052046FFF76CFD40EA050801AA9021F5
:102680002046FFF76FF800E004E0019940EA0805F2
:1026900049EA116A002281212046FFF762FB40EAE5
:1026A00005080622FF212046FFF75BFB40EA0805EC
:1026B00002AA83212046FFF74AF840EA05089DF860
:1026C0000800832100F0FB022046FFF74AFB40EAA6
:1026D00008050122FF212046FFF743FB40EA0508D9
:1026E000012200212046FFF73CFB40EA08050022BA
:1026F000FF212046FFF735FB40EA05080022802134
:102700002046FFF72EFB50EA080543D1F8070FD00B
:10271000F0070DD1129884F8130184F814B1002049
:102720000BA923180A5C401C83F82A210628F8DB31
:10273000B8070ED5B0070CD49DF84C0084F8F10012
:102740009DF8400084F8F20004F1F30006A9FDF7BB
:102750008CFD780719D5700717D40E98C4F81801A6
:102760000F98C4F81C0104984002C4F8200100200E
:10277000BAF1000F08D00599AAEB01004FF47A11C5
:1027800048430014404200B2E0603E438DF80860C8
:1027900084F8F06015B02846BDE8F08F30B585B0FC
:1027A00005464FF4FA6002900020039040F6363060
:1027B00008600C4669462846FEF724FF00284DD1E4
:1027C0009DF8001029B99DF8011011B99DF802106B
:1027D00011B302AA0221284601F0ABFC00283DD12A
:1027E0009DF8001029B10299226801F24E2111448E
:1027F00021609DF8021031B10299226801F2B221E4
:1028000002EB410107E09DF8011029B1029922680D
:1028100001F52571114421609DF8031061B103AAEF
:102820000321284601F085FC0399226801F52571F2
:1028300011442160002811D19DF8041061B104AA4F
:102840000421284601F075FC0499226801F2262132
:1028500011442160002801D12168696105B030BDB3
:1028600038B50C4640F2FF756A462821FEF785FF11
:1028700000280ED1BDF80010C1F30B02ADF8002006
:10288000AA424FF0FA0101DDA2F5805212FB01F1DC
:10289000216038BD10B500240B4610F1080F3DD063
:1028A0001DDC10F1140F41D00CDC10F1630F45D08A
:1028B00010F1320F40D010F1280F3BD010F11E0F55
:1028C0003ED135E010F10C0F22D010F10B0F2BD0C0
:1028D00010F10A0F26D010F1090F31D120E0C01DF0
:1028E00008282DD2DFE800F0181612100E0C06048E
:1028F00014A100E016A11846FDF7B7FC204610BD54
:102900001AA1F8E71EA1F6E721A1F4E727A1F2E753
:102910002BA1F0E730A1EEE732A1ECE735A1EAE721
:102920003BA1E8E73FA1E6E743A1E4E749A1E2E7ED
:102930004EA1E0E753A1DEE758A1DCE75EA1DAE7AC
:1029400063A1D8E74E6F204572726F7200000000DD
:1029500043616C6962726174696F6E205761726E57
:10296000696E67204572726F720000004D696E20BB
:10297000636C6970706564206572726F720000002C
:10298000556E646566696E6564206572726F72006B
:10299000496E76616C696420706172616D65746501
:1029A0007273206572726F72000000004E6F7420A7
:1029B000737570706F72746564206572726F7200E7
:1029C000496E74657272757074206E6F7420436CFA
:1029D000656172656400000052616E676520657212
:1029E000726F720054696D65206F75742065727224
:1029F0006F7200004D6F6465206E6F742073757088
:102A0000706F72746564206572726F7200000000EE
:102A100042756666657220746F6F20736D616C6CB1
:102A2000000000004750494F206E6F7420657869A0
:102A30007374696E670000004750494F2066756ED9
:102A40006374206E6F7420737570706F7274656438
:102A500000000000436F6E74726F6C20496E7465E5
:102A60007266616365204572726F7200496E7661AD
:102A70006C696420436F6D6D616E64204572726F86
:102A8000720000004469766973696F6E2062792074
:102A90007A65726F204572726F72000052656665CA
:102AA00072656E6365205370616420496E6974209D
:102AB0004572726F720000004E6F7420696D706C09
:102AC000656D656E746564206572726F72000000DA
:102AD000556E6B6E6F776E204572726F7220436F0A
:102AE000646500002DE9FF4F8BB04FF00009199D80
:102AF0008DF800909A460646C8464F468DF80490D9
:102B00008DF808908DF80C90ADF81090C1F3C304C7
:102B1000CDF81490BCB1052C15D0072C13D00C2C7B
:102B200011D00D2C0FD00E2C0DD00F2C0BD000205F
:102B300083466A4600213046FEF75FFC9DF8001090
:102B4000C9B110B11DE00120F2E705AB06AA30467D
:102B50001899FFF79FF9A0B91899059807AA488115
:102B600000213046FEF756FC079921B1069A8A42A9
:102B700001D94FF0010920B902AA02213046FEF71F
:102B80003CFC9DF8081011B338BB08AA022130465E
:102B9000FEF740FC80B90122FF213046FFF7E1F843
:102BA00050B904AAB6213046FEF7E7FD20B900224D
:102BB000FF213046FFF7D5F8BDF810104902C6F8DE
:102BC0004811089A1AB1914201D94FF0010820B971
:102BD00003AA03213046FEF710FC9DF80C1091B1BA
:102BE00090B9BAF1000F12D00D980102B1FBFAF0C2
:102BF000824609AA03213046FEF70CFC099911B15F
:102C00008A4500D2012720B1287858B32DE0002052
:102C1000EEE7BBF1000F01D0FF2013E0012C10D034
:102C2000022C0ED0032C0CD0062C0DD0092C0BD06E
:102C3000082C04D00A2C02D0B8F1000F06D00320D3
:102C400000E00520287010E00420FBE7042C00D0F1
:102C50000FB10220F6E7B9F1000F01D00120F1E732
:102C60000020287018990020488101AA01213046CF
:102C7000FEF7C3FB002825D19DF8001011B15FEAD3
:102C8000090100D0012186F82E10042C15D09DF8E2
:102C9000041091B15FF0000186F82F109DF8081024
:102CA00011B15FEA080100D0012186F830109DF8CB
:102CB0000C1001B11FB1012102E00121ECE700215C
:102CC00086F831100FB0BDE8F08F000010B5002479
:102CD0000B46062814D2DFE800F003050B0D0F1198
:102CE00008A100E00BA11846FDF7BFFA204610BD71
:102CF0000CA1F8E70FA1F6E712A1F4E715A1F2E79E
:102D000018A1F0E752616E67652056616C69642016
:102D1000202000005369676D61204661696C2020A6
:102D2000202000005369676E616C204661696C2049
:102D3000202000004D696E2052616E67652046615B
:102D4000696C00005068617365204661696C2020E1
:102D500020200000486172647761726520466169D5
:102D60006C2000004E6F2055706461746520202037
:102D70002020000038B51446CA6822606A4600F078
:102D800007F8002803D12168009A1144216038BD5A
:102D9000F8B5064600200D461060144669463046D8
:102DA000FEF781FC002809D19DF80010002905D00C
:102DB000A98A326A51438031090A2160F8BD38B5C9
:102DC000144621B1012905D06FF003010DE06A46D8
:102DD000502101E06A467021FEF7B9FC010004D1E0
:102DE0009DF80000FFF7B0F92070084638BD0000DC
:102DF0000E4810B5016886B041F00201016000681C
:102E0000012400F0020005904FF44060CDE9000479
:102E10000320CDE9024069460548FDF7A7FA0548B9
:102E2000C0F8A842C0F8AC4206B010BD303802402D
:102E30000004024000804042024600204FF08041E2
:102E400000E089089142FCD808E04318934203D877
:102E5000D21A01EB500000E0400889080029F4D1A3
:102E600070470000F8B5074600200D460446061FCF
:102E700013E0CBB2641CFF2B05D0042B0CD8295DCA
:102E800000206A4639E0295D641C61B1012912D035
:102E9000022918D003291ED03046295D002901D00F
:102EA0000028E6D0F8BD2A5D641C295D01EB0221F3
:102EB000A7F8341116E0295D641C2A5D02EB01219C
:102EC000A7F836110EE02A5D641C295D01EB022192
:102ED000A7F8381106E0295D641C2A5D02EB012188
:102EE000A7F83C11641C295D0029C2D1F8BD00BFC0
:102EF00015F804C002F800C0401C641C9842F7DBBF
:102F00003846FEF744FFC8E7F8B5064600208DF8BE
:102F1000000004464FF4FA6569463046FEF7B7FAFA
:102F2000002807D19DF80010012903D0641CAC4291
:102F300001D3C01FF8BD3046FEF700FCECE72DE9D9
:102F4000F04385B01D0091460E4607464FF0000441
:102F500001D097F8304102220121FEF702FF4FF025
:102F6000000838B90021384600F052F910B9B9F11B
:102F7000010F11D086F8008000280AD1002D08D05A
:102F8000224601213846FEF7ECFE002801D187F8E1
:102F9000304105B0BDE8F083012004A9CDE9001659
:102FA000CDE90280424601461346384600F0B8F9A2
:102FB000E2E72DE9F0411E461746054690F83041FC
:102FC0000023324600F040F9002810D10023324699
:102FD00039462846FFF7B3FF002808D122460121D1
:102FE0002846FEF7BEFE002801D185F83041BDE835
:102FF000F0812DE9F74F96B006462C200B9000206B
:103000000E9011908DF84C008DF850001290B6F88B
:103010003CA14FF0B4094FF0030B01464FF00608F6
:10302000074672180020491C82F824014145F8D354
:103030000122FF213046FEF794FE040079D10022E0
:103040004F213046FEF78DFE0400F7D12C224E2191
:103050003046FEF786FE0400F0D10022FF21304604
:10306000FEF77FFE0400E9D14A46B6213046FEF75E
:1030700078FE0400E2D1002280213046FEF771FE86
:103080000400DBD1002314AA13A93046FFF791FFF7
:103090000400D3D106F592730EAACDF800800693F2
:1030A0000E90CDE903B29A1D0A92CDE90190014636
:1030B000304600F09DFF04003BD109A930460E9D2B
:1030C00001F018F9040034D1BDF82410514531D96C
:1030D00000213218401C82F824114045F9D300E049
:1030E0006D1C09EB050001F09DF810B90B988542A5
:1030F000F6D301200EA9CDF800801590CDE903B1DB
:10310000CDE9019501463046069B0A9A00F070FF12
:10311000040079D109A930460E9D01F0EBF80400B6
:1031200072D1BDF82410514505D901205F46129097
:1031300001E051E0159089B2514555D21598129091
:103140005F4642460FA80699FDF76BF8BDF82410BC
:10315000B1EB0A0000D54042834611AB2A464146F6
:103160000A9800F0B3FF1198411C0FD0484401F0B9
:1031700059F8159988422ED1119D41462A467F1C47
:10318000069800F07FFF040003D03DE06FF03104AB
:103190003AE030466D1C069901F014F9040033D171
:1031A00009A9304601F0A6F804002DD1BDF824107D
:1031B000B1EB0A0000D5404251450ED958450AD915
:1031C0000FA9304601F0FEF8044642460FA90698C2
:1031D000FDF727F87F1E3CB116E0834642460FA854
:1031E0000699FDF71EF8B8E7179807601899129826
:1031F0000870012086F815011798007886F81301E9
:103200001898007886F8140119B02046BDE8F08FB0
:1032100010B541F0010204460021FEF7A2FD00288E
:1032200011D12046FFF770FE00280CD10021204666
:10323000FDF75CFF002806D120460022BDE81040C3
:103240001146FEF78EBD10BD2DE9F04385B04FF05D
:1032500000051E0091460F4680462C468DF8105002
:1032600001D098F8305101221146FEF77AFD38B9A5
:1032700040214046FFF7CCFF10B9B9F1010F10D043
:103280003C7000280AD1002E08D02A460121404671
:10329000FEF767FD002801D188F8305105B0BDE880
:1032A000F083012004A900970394CDE90110224680
:1032B00001461346404600F033F8E2E7012300F0F0
:1032C00016B838B5144604236A4600F010F89DF885
:1032D00003109DF800209DF8023001EB02619DF87B
:1032E0000120120402EB03221144216038BD70B5A5
:1032F0001D46134600242A4600F0FCFA00B10124C2
:10330000204670BD38B5144602236A46FFF7EFFF2A
:103310009DF801109DF8002001EB0221218038BDAD
:103320002DE9FF4F81B00020DDE90EA9DDE9106530
:103330000F468DF800009B460122FF210198FEF701
:1033400010FD0446002211460198FEF70AFD40EAEE
:1033500004080022FF210198FEF703FD40EA08045B
:103360006FB12EB15246CB210198FEF7F0F904431C
:10337000A5B16A46EE210198FEF7E9F90DE02EB1FC
:10338000CB21039A0198FEF7ECFC044335B15B4670
:103390008022EE210198FEF7C3FC04430122FF21A5
:1033A0000198FEF7DEFC0443012200210198FEF79C
:1033B000D8FC04430022FF210198FEF7D2FC9DF8BF
:1033C0000010204301F0EF0289F8002005B0BDE8AD
:1033D000F08F2DE9FF4107464FF4FA60029000207C
:1033E000039044F620600E466FF0030581424FD3F0
:1033F000A6F6363469463846FEF704F9002844D16B
:103400009DF8001029B99DF8011011B99DF802101E
:1034100001B302AA0221384600F08BFE002834D105
:103420009DF8001029B1029901F24E21A1422FD23C
:10343000641A9DF8021021B1029901F2B2214900EB
:1034400005E09DF8011029B1029901F52571A1420D
:103450001ED2641A9DF8031061B103AA03213846F5
:1034600000F067FE039901F52571A14210D2641A9C
:1034700000280AD19DF80410002906D0A4F22622C3
:103480000421384600F0A3FF7E6104B0BDE8F0815E
:103490002846FAE730B40C4A0C4BFA24914201DD7D
:1034A000114605E0994201DA194604E0002902DBE1
:1034B00091FBF4F103E091FBF4F101F580518AB244
:1034C00030BC2821FEF758BC18CC07000030F8FFAC
:1034D00030B587B004AD012305AC0095CDE90143BB
:1034E000039313460A460021FFF71AFF07B030BDC9
:1034F0002DE9F0479046894686B004460025B4265B
:1035000006274FF02C0A0122FF21FEF72AFCB0B952
:1035100000224F212046FEF724FC80B92C224E21A8
:103520002046FEF71EFC50B90022FF212046FEF780
:1035300018FC20B93246B6212046FEF712FC0020C6
:1035400001462218401C82F82411B842F9D3B8F180
:10355000000F01D106E06D1C701900F063FE08B980
:103560005545F8D305A90097CDE90391CDE901654B
:1035700004F592739A1D4146204600F039FD00285B
:1035800006D1012184F8151184F8139184F814816F
:1035900006B0BDE8F0872DE9FF41074600208DF811
:1035A0000C0014460E46D0076FF0030571D116B11A
:1035B000012E0DD0B2E00C2C6BD3122C69D80C2C40
:1035C00013D00E2C13D0102C13D0122C13D0A5E036
:1035D000082CF1D30E2CF1D8082C17D00A2C44D08B
:1035E0000C2C57D00E2C69D098E0182204E0302221
:1035F00002E0402200E0502257213846FEF7B1FB9E
:10360000082256213846FEF7ACFB85E010224821FF
:103610003846FEF7A6FB082247213846FEF7A1FBF5
:103620008046022232213846FEF79BFB40EA08081A
:103630000C2230213846FEF794FB40EA08080122AC
:10364000FF213846FEF78DFB40EA0808302211467C
:103650003846FEF786FB40EA08080022FF2138467C
:10366000FEF77FFB40EA080056E028224821384652
:10367000FEF777FB082247213846FEF772FB8046AB
:10368000032232213846FEF76CFB40EA0808092283
:1036900027E04AE0382248213846FEF762FB08223C
:1036A00047213846FEF75DFB80460322322138462B
:1036B000FEF757FB40EA0808082212E048221146AC
:1036C0003846FEF74EFB082247213846FEF749FBF5
:1036D0008046032232213846FEF743FB40EA0808C1
:1036E000072230213846FEF73CFB40EA0808012259
:1036F000FF213846FEF735FB40EA0808202230213A
:103700003846FEF72EFB40EA08080022FF21384623
:10371000FEF727FB40EA0800002807D12046FEF705
:103720004BFD80462EB1012E23D0284604B0BDE8C3
:10373000F08101AA0321384600F0FBFCB0B902AACF
:103740000221384600F0F5FC80B942465021384647
:10375000FEF707FB50B903213846019A00F037FE07
:1037600020B902213846029A00F031FE87F8E8407D
:1037700012E06A460421384600F0DBFC50B94246AC
:1037800070213846FEF7EDFA20B904213846009A38
:1037900000F01DFE87F8E0400028C7D1384679695F
:1037A000FEF721F90028C1D10123002203A93846E0
:1037B000FFF7C5FBBAE707B5012302AA00F001F83D
:1037C0000EBD70B51D46134600242A4600F064F96C
:1037D00000B10124204670BD38B50546100A8DF8A9
:1037E00000000C468DF80120C80708D001236A4666
:1037F0002846FFF7E6FF01236A46214601E002233F
:103800006A462846FFF7DDFF38BD000070B50D4C55
:103810000025C4F8AC520C48016821F44011016045
:10382000016841F480110160C4F8A852022004F537
:103830002A7400F0C3FB01206060022000F0BEFB90
:10384000656070BD008040420004024070B50D4CC0
:103850000025C4F8AC520C48016821F44011016005
:10386000016841F4801101600126C4F8A8620220B9
:1038700004F52A7400F0A2FB6660022000F09EFBB3
:10388000656070BD00804042000402402DE9F047B1
:10389000814616480024016821F440110160016846
:1038A0000160134E254627464FF00108C6F8AC725A
:1038B000042000F083FBC6F8AC826006040ED6F844
:1038C000280208B1641CE4B2042000F077FB6D1CF0
:1038D000EDB2082DEAD3B9F1000F04D0FFF796FF3F
:1038E0002046BDE8F087FFF7B1FFF9E7000402408A
:1038F000008040422DE9F0411D4614460F46064621
:1039000000F05EF8304600F027F800F09BF820B198
:1039100000F076F80120BDE8F081384600F01CF890
:1039200000F090F800F04CF846F0010000F014F8B8
:1039300000F088F808E0012C0CD00120FFF7A6FF6A
:10394000641E05F8010BA4B2002CF4D100F058F865
:103950000020E0E70020F1E72DE9F0410646164897
:10396000016821F440110160016841F48011016097
:10397000124C0027C4F8AC723D464FF001083006E7
:1039800002D5C4F8A88201E0C4F8A8727006060E39
:10399000022000F013FBC4F8AC82022000F00EFB02
:1039A000C4F8AC72022000F009FB6D1CEDB2082DCA
:1039B000E5D3BDE8F08100000004024000804042F1
:1039C00070B50D48016821F440110160016841F4AF
:1039D00080110160094C0120C4F8A802C4F8AC02AF
:1039E000042004F52A7400F0E9FA0025256004207B
:1039F00000F0E4FA656070BD0004024000804042BF
:103A00000E4810B5016821F440110160016841F4CD
:103A1000801101600A4C0020C4F8AC02C4F8A8026E
:103A2000042004F52A7400F0C9FA012060602060C7
:103A3000BDE81040042000F0C1BA000000040240BC
:103A40000080404270B512480024016821F4401102
:103A50000160016801600F4D0126C5F8A86230467B
:103A600000F0ACFAC5F8AC62012000F0A7FA07E05C
:103A7000641CE4B2FA2C03D9FFF7C2FF012070BD29
:103A8000D5F828020028F3D1C5F8AC0270BD0000BB
:103A900000040240008040422DE9F0411C461546DA
:103AA0000F460646FFF78CFF3046FFF755FFFFF73E
:103AB000C9FF20B1FFF7A4FF0120BDE8F08138461F
:103AC00002E000BF14F8010BFFF746FFFFF7BAFF53
:103AD0006D1EADB2F6D2FFF793FF0020EDE70000B8
:103AE0000FB4054B10B503A9044A029800F028F85A
:103AF00010BC5DF814FB0000B14000080C0300206E
:103B00000907090E002804DB00F1E02080F800140A
:103B1000704700F00F0000F1E02080F8141D70479E
:103B200002E008C8121F08C1002AFAD17047704786
:103B3000002001E001C1121F002AFBD170470000E4
:103B40002DE9FF4F8DB00F460546002606E02528DB
:103B50000BD0DDE90F1290476D1C761C28780028E9
:103B6000F5D111B03046BDE8F08F0024A246A14641
:103B70000122EC4900E0044315F8013F203B02FA22
:103B800003F00842F7D128782A2810D06FF02F02CE
:103B90002878A0F13001092914D80AEB8A0102EB38
:103BA000410144F0020400EB010A6D1CF0E701CF73
:103BB0005FEA000A03D544F40054CAF1000A44F055
:103BC00002046D1C28782E2817D115F8010F44F037
:103BD00004042A280ED06FF02F022878A0F13001BB
:103BE00009290AD809EB890102EB410100EB01091F
:103BF0006D1CF2E757F8049B6D1C28786C280FD0D9
:103C000006DC4C2817D068280DD06A2814D104E0AF
:103C1000742810D07A280FD10DE044F400140AE083
:103C200044F4801401E044F440146978814202D1E4
:103C300004F580146D1C6D1C2A786E2A1FD00CDCD4
:103C4000632A31D004DC002A8BD0582A11D1A3E09A
:103C5000642A68D0692A0CD165E0732A2ED004DC6E
:103C60006F2A73D0702A04D19BE0752A6FD0782A0E
:103C70006ED01046DDE90F129047761C50E1C4F378
:103C80000250022806D0032809D0042801CF09D009
:103C9000066045E101CFF117C0E9006140E101CFC5
:103CA00006803DE106703BE117F8040B8DF800003B
:103CB00000208DF80100EB46012003E057F804BB1B
:103CC0004FF0FF3061074FF0000102D40DE008F122
:103CD0000101884649450FDA8045F8DB1BF80810DA
:103CE0000029F4D108E008F1010188468142FADB9D
:103CF0001BF808100029F6D1DDE90F23AAEB080014
:103D00008146214600F036F9304400EB080604E015
:103D1000DDE90F121BF8010B9047B8F10108F7D24B
:103D200021464846F7E00A21C4F302534FF0000B46
:103D30000891022B04D001CFC117032B09D00AE050
:103D4000FF1D27F00707F7E8020108E032E01FE057
:103D500020E000B2C117042B01D140B2C117031EED
:103D600071F1000307DA4FF0000CD0EB0C006CEBA4
:103D700001012D2302E0230504D52B238DF82430E7
:103D8000012303E0E30701D02023F7E7984658E03A
:103D90000A2110E010210EE010204FF0000B0890D7
:103DA0000CE010214FF0000B44F004044FF0080920
:103DB000089103E008214FF0000B0891C4F302536F
:103DC000022B04D001CF0021032B06D006E0FF1DFB
:103DD00027F00707F7E8020103E080B2042B00D1C7
:103DE000C0B24FF0000823072BD5702A07D0DDF8AA
:103DF00020C08CF0100C5CEA0B0C05D00EE04023C8
:103E00008DF82430012308E050EA010306D0302366
:103E10008DF824308DF8252002239846DDF820C047
:103E20008CF0080C5CEA0B0C0BD150EA010301D1B9
:103E3000630706D530238DF824304FF00108A9F12F
:103E40000109582A04D038A20B9208AA0A920BE062
:103E50003AA2F9E75B46089AFCF7B2F90B9B9B5C28
:103E60000A9A521E0A92137050EA0102F2D10A987D
:103E7000ADEB000000F1200B600702D524F4803484
:103E800001E04FF00109D94502DDA9EB0B0000E08C
:103E9000002000EB0B0141440890AAEB010AE0036B
:103EA00006D4DDE90F232146504600F063F80644AE
:103EB0004FF0000908E009A911F80900DDE90F1227
:103EC000904709F10109761CC145F4DBE0030CD5EC
:103ED000DDE90F232146504600F04CF8064404E08B
:103EE000DDE90F1230209047761C0899481E089093
:103EF0000029F5DC08E00A980A990078491C0A9123
:103F0000DDE90F129047761CBBF10001ABF1010B0C
:103F1000F1DC21465046DDE90F2300F019F8064494
:103F20006D1C1BE609280100303132333435363739
:103F300038396162636465660000000030313233F5
:103F40003435363738394142434445460000000095
:103F50002DE9F041044600251E461746880404D486
:103F600005E039462020B0476D1C641EF9D528466F
:103F7000BDE8F0812DE9F041044600251E4690463B
:103F8000C80301D5302700E02027880404D505E0C8
:103F900041463846B0476D1C641EF9D52846BDE839
:103FA000F08170B5054600244FF47A7603E0304680
:103FB00000F004F8641CAC42F9D370BD70B54FF04A
:103FC000E024002265690949A36909684843A16999
:103FD0009942FCD002D2A3EB010302E0A5EB01065B
:103FE00033441A440B468242F1D370BD08030020CB
:103FF0002DE9FF4F83B00024DDE9125A149F9B4640
:10400000DDF8409026466FF0310800951AE06B46C7
:104010002A464946059800F059F80098411C06D0F8
:104020001199084400F0FEF80499884202D04446F1
:104030003D6023E0009D49462A46584600F022F89C
:104040006D1C761C5645E2D33D60BCB959460398B9
:1040500000F0B8F9040011D101A9039800F064F848
:104060000446002001A907E01BF800200B5C9A42DF
:1040700001D0444602E0401C4845F5D307B0204635
:10408000BDE8F08F70B50825B2FBF5F3B2FBF5F68D
:104090000446002005FB16228B4202D36FF031004C
:1040A00070BDE15C012595402943E15470BD0000DD
:1040B00038B504468DF80000022301226946024803
:1040C000FCF702FE204638BD540300202DE9F043E2
:1040D000082581464FF0FF301860B2FBF5F0B2FBC7
:1040E000F5F605FB10274FF0000C304615E00022D6
:1040F00019F80040B04202D1FC403A460AE05FEABB
:10410000C47805D000FB05224FF0010C1A6003E0D3
:104110006408521CAA42F2D3401C884202D2BCF16D
:10412000000FE4D0BDE8F08306230A46B021FDF776
:104130002FBB2DE9F04100248AB0174680468DF848
:104140001C402546ADF81840264641B1012906D04D
:10415000022904D0032912D0042929D05DE06A463F
:1041600000214046FDF787FA040005D107AA462141
:104170004046FDF7ECFA04469DF81C0015E06A463F
:1041800000214046FDF777FA040046D16A46002137
:104190004046FDF770FA040005D106AA51214046B9
:1041A000FDF7EBFA0446BDF81800FDF7C7FF2DE058
:1041B00004A94046FDF726FA9DF81300002590B1AA
:1041C0006A4600214046FDF756FA04001DD106AAB2
:1041D00051214046FDF7D1FA0446BDF81800FDF71D
:1041E000ADFF85B28CB96A4601214046FDF743FA1E
:1041F00004000AD108AA71214046FDF7BEFA044620
:10420000BDF82000FDF79AFF86B2701B81B29DF8C1
:1042100000204046FDF763FF05463D600AB020469A
:10422000BDE8F0810146044A8909012052F82110B5
:10423000002900D100207047BC020020FCF7A2F941
:10424000FCF7C6FDFCF7E6FDFCF7ACFDFCF78EFDC8
:1042500014A0FFF745FCFEF7CBFD154C0CE015A0B4
:10426000FFF73EFC6420FFF79CFED4F8980288B16B
:104270005FF00000C4F89802134800F06DF90028C0
:10428000EDD112A0FFF72CFC03210F4800F0DEF95E
:1042900010B104E00120EDE710A0FFF721FC00F0D1
:1042A00091FA0000564C35334C30580A0D0000008E
:1042B00000004042564C35334C3058204572726FE6
:1042C000722121210A0D00009C030020564C353339
:1042D0004C3058204F4B0D0A00000000564C35332F
:1042E0004C3058204D4F444520534554204F4B0DE2
:1042F0000A00000070B50E4688B0054690F83041BF
:10430000C0220121FDF72DFD002823D16946284652
:10431000FDF7FAF900281DD10122FF212846FDF7FB
:1043200020FD002816D13246B6212846FDF725FA91
:1043300000280FD10022FF212846FDF712FD00289A
:1043400008D1224601212846FDF70BFD002801D1A6
:1043500085F8304108B070BD10B588B00446694694
:10436000FDF7B6F86A46214602A0FFF7B9FB08B090
:1043700010BD0000415049205374617475733A2098
:104380002569203A2025730D0A00000010B5002091
:104390001870052913D2DFE801F00306090C0F009D
:1043A000C2F3001109E0C2F3C00106E0C2F38001CC
:1043B00003E0C2F3801100E0D109197010BD6FF065
:1043C000030010BD06230A46B021FDF7E0BCF0B59E
:1043D00087B01646054661B101290AD0022908D0E6
:1043E000032922D004293ED06FF0030407B02046F1
:1043F000F0BD05AA0021FDF73EF90400F6D19DF8B5
:10440000142031462846FDF759FE80B2B0F5807F72
:1044100001D9FF2201E0401EC2B2A5F8D8204621F2
:104420002846FDF79EFC0446E0E705AA0021FDF7BB
:1044300022F904469DF8142031462846FDF73EFE39
:1044400080B2FDF7AAFEADF808000246A5F8D80034
:10445000002CCBD151212846FDF78EFC0400C5D19C
:10446000C5F8E460C2E703A9FDF7CCF89DF80F009A
:10447000002798B105AA00212846FDF7FCF80400A2
:10448000B4D102AA51212846FDF777F90446BDF8B8
:104490000800FDF753FE87B2002CA7D105AA012121
:1044A0002846FDF7E8F80400A0D19DF81420314615
:1044B0002846FDF703FE3844FDF76FFE02467121E2
:1044C0002846FDF759FC040090D1C5F8DC608DE763
:1044D000F8B5064690F85C010D46A84201D10020CF
:1044E000F8BD002288213046FDF73BFC040001D0D6
:1044F000012515E06A46C0213046FDF73EF904006B
:1045000001D002250CE0BDF80000A0F56E41AA39EB
:104510000DD129463046FDF74AF9040009D003259C
:10452000FFF71AFF1DB1294608A0FFF7D9FA204668
:10453000F8BD86F85C516A46C0213046FDF71DF98A
:104540000400F4D00425FFF707FFECE77374613A29
:10455000307825780D0A0000F0B50446254887B06C
:104560000026016841F0010101600068012500F0AA
:10457000010005901020CDE900050320CDE902508F
:1045800069461D48FBF7F2FE522184F85C111B4F6F
:1045900084F85D514FF4C871A4F85E11C7F89062B9
:1045A0001E2007F52477FFF7FCFC3D601E20FFF777
:1045B000F8FC54212046FFF78BFF2046FCF7BCFD9A
:1045C000070008D10220FFF7ECFC0D492046FCF75C
:1045D0007FFE070002D0FFF7BFFE05E00948017823
:1045E0000948AA2903D0067007B03846F0BD057007
:1045F000FAE700003038024000000240000040426C
:10460000FC04002077050020CC02002070B50E4E7F
:10461000044690F85C510020C6F890021E2006F572
:104620002476FFF7BEFC012030601E20FFF7B9FCA6
:10463000522084F85C0129462046FFF749FF2046B6
:10464000BDE87040FCF778BD000040422DE9FF4115
:104650000F460646FFF7DAFF3046FDF7A7FA49484E
:10466000007810B3484D30466A786969FDF7C1F9A2
:1046700004007DD10220FFF794FCEA78A978304647
:10468000FDF7B5F9040076D10220FFF78AFC29690D
:104690003046FDF7AAF904006DD10220FFF781FC36
:1046A000A9683046FDF700FA0EE001AA69463046D7
:1046B000FDF714F804005ED10220FFF772FC03AA94
:1046C00002A93046FDF70DF8040054D10220FFF78F
:1046D00068FC00213046FDF76EF804004BD1022043
:1046E000FFF75FFC012200213046FDF713F90400BB
:1046F00041D10220FFF755FC012211463046FDF75B
:1047000009F9040037D10220FFF74BFC1F48C7EB23
:10471000C70100EB410500216A683046FDF73BF90F
:10472000040028D10220FFF73CFC2A680121304612
:10473000FDF731F904001ED10220FFF732FCA96811
:104740003046FDF750F9040015D10220FFF729FC8F
:104750002A7B00213046FDF7A5F904000BD1022089
:10476000FFF71FFC6A7B01213046FDF79BF900E053
:1047700001E0040002D0FFF7EFFD204604B0BDE8E1
:10478000F0810000CC02002077050020CD0200203F
:104790002DE9F04116460C46FCF7B6FF05000CD19A
:1047A000277E20213046FBF755FD31463846FCF781
:1047B00091FE0349208908802846BDE8F081000069
:1047C000060300200024104D104F114A11491248D1
:1047D000FFF7DEFF06462888FBF7B6FD1EB92988DD
:1047E0000EA0FFF77DF90A20FFF7DBFB641CE4B2A3
:1047F000142CEAD1D7F89C0220B10020C7F89C0203
:104800000024E2E70120F9E706030020000040420F
:1048100032030020900500209C03002025640D0A2F
:10482000000000000000000000000000010203047E
:104830000607080900000000010203045C480008A4
:104840000000002010030000E0020008104B0008E8
:1048500010030020A0060000303B000850070100B4
:104860000000100001100724F40001FF01133015AF
:1048700001FF0001090001100001110001240101E4
:1048800025FF01751B20094E2C0148000130202115
:104890002036300901540001310401320301408304
:1048A0000146250160000127000150060151000169
:1048B00052960156080157300161000162000164FF
:1048C000000165000166A045300B2232014714014A
:1048D00049FF014A6920097A0A017B0001782160B9
:1048E000201B23340142000144FF014526014605F7
:1048F000014040010E0601201A0143402A200634DF
:104900000301354487117520094B09014C05014D00
:104910000442301D44000145200147080148280198
:1049200067000170040171010172FE0176000177D8
:10493000B7230D0169200680010101F8C6128EE43B
:10494000411221F6511B51F9106701014F0201FF7D
:104950000E01000301018401020A0103030104089E
:104960000105C801060301078D0108080109C601F8
:104970000A01010B02010C00010DD5010E18010FF7
:10498000120110010111820112000113D501141846
:1049900001151301160301178601180A01190901EF
:1049A0001A08011BC2011C03011D8F011E0A011FF1
:1049B000D51431010121020122000123D50124185F
:1049C0000125220126010127820128000129D501A4
:1049D0002A18012B0B012C28012D78012E28012FDC
:1049E0009101306B34380B01320001330B0134007C
:1049F0000135A10136000137A00138000139040159
:104A00003A28013B30013C0C013D04013E0F013FBF
:104A10007901402801411E01422F014387202408CB
:104A20000B01460001470BBF2749A77A24064BA676
:104A3000014C0041124EF315B6242F0001518001A4
:104A4000520901530801540101550001560F015745
:104A500079015809015905015A00015B60015C05A3
:104A6000015DD1015E0C015F3CEC142C61D0016250
:104A70000B01630301642801651001662A0167398F
:104A800001680B016902016A28016B10016C2A019F
:104A90006D61016E0C016F9534110F017179017216
:104AA0000001730B01740001750B9E140DA10178B8
:104AB000000179A0017A00017BCB441F0401791D1C
:104AC000017B2701960E0197FE0198030199EF01E2
:104AD0009A02019B440173070170A425B949AF12E2
:104AE0000A0452050C41082A40C614041200E8D8F2
:104AF000630E0A0E1004400D030E23991921323C57
:104B00001C43120E2A30052000204E2A810100008D
:040000050800018965
:00000001FF
